:020000040800F2
:10000000C00400209D010008BD0B0008FF08000887
:10001000B90B0008F90800087D0D00080000000079
:10002000000000000000000000000000C10B0008FC
:10003000FD08000800000000BF0B0008B501000823
:10004000B7010008B7010008B7010008B7010008B0
:10005000B7010008B7010008B7010008B7010008A0
:10006000B7010008B7010008B7010008B701000890
:10007000B7010008B7010008B7010008B701000880
:10008000B7010008B7010008B7010008B701000870
:10009000B7010008B7010008B7010008B701000860
:1000A000B7010008350C0008B7010008B7010008C7
:1000B000B7010008B7010008B7010008B701000840
:1000C000B7010008B7010008B7010008B701000830
:1000D000B7010008DD0C0008B7010008B7010008EF
:1000E000B7010008B7010008B7010008B701000810
:1000F000B7010008B7010008B7010008B701000800
:10010000B7010008B7010008B7010008B7010008EF
:10011000B7010008B7010008B7010008B7010008DF
:10012000B7010008B7010008B7010008B7010008CF
:10013000B7010008B7010008B7010008B7010008BF
:1001400000000000000000000000000000000000AF
:10015000B7010008B7010008B7010008B70100089F
:10016000B7010008B7010008B7010008B70100088F
:10017000B7010008B7010008B7010008B70100087F
:10018000B7010008DFF810D000F0C4FA00480047BB
:100190006D210008AFF30080C004002006488047AE
:1001A00006480047FEE7FEE7FEE7FEE7FEE7FEE75C
:1001B000FEE7FEE7FEE7FEE7C50B00088501000845
:1001C00000F0004230F000400AD0C10D01F560712E
:1001D000C0F3160042EA0151C208400711437047BC
:1001E000002001467047000030B5041E71F1000484
:1001F00004DB4FF00044404264EB0101141E73F134
:10020000000405DB1C464FF00043524263EB04033D
:10021000994208BF904230BD01F0004330B421F054
:10022000004150EA010206D00A0DA2F56072C1F346
:100230001301002A02DC30BC00207047440F44EA5E
:10024000C104C100E01830BC00EBC25000F047B858
:1002500030B50B46014600202022012409E021FA96
:1002600002F59D4205D303FA02F5491B04FA02F593
:100270002844151EA2F10102F1DC30BD2DE9F05F2A
:100280000546002092469B46884606468146402405
:100290001BE0284641464746224600F05CFA53469A
:1002A0005A46C01A914110D311461846224600F012
:1002B00043FA2D1A67EB01084F4622460120002120
:1002C00000F03AFA17EB00094E41201EA4F1010498
:1002D000DFDC484631462A464346BDE8F09F002908
:1002E000A8BF7047401C490008BF20F001007047BC
:1002F00010B4B0FA80FC00FA0CF050EA010404BF1C
:1003000010BC704749B1CCF1200421FA04F411FA71
:100310000CF118BF012121430843A3EB0C01CB1DB5
:100320004FEA00614FEA102042BF002010BC704726
:1003300000EBC35010440029A4BF10BC7047401C00
:10034000490008BF20F0010010BC70472DE9FE4FA6
:10035000804681EA0300C00F0C46009021F0004166
:1003600023F00045B8EB0200A94105D240462146E2
:1003700090461C460B46024623F00040104347D0EF
:10038000270DC7F30A00C3F30A510290401A0190E7
:1003900040286BDAC3F3130040F4801B00989246A8
:1003A00020B10023D2EB030A63EB0B0B01985946F3
:1003B000C0F14002504600F0BFF906460D465046D7
:1003C0005946019A00F0D7F910EB0800614100246A
:1003D00087EA115284EAE7731A4340D0009A62B365
:1003E000019A012A4FEA075215DC001B61EB02015A
:1003F0004FF0004202EA0752CDE90042001C41F5ED
:10040000801132462B4600F0D7F903B0BDE8F08FDB
:1004100040462146F9E7001B61EB0201001C41F553
:10042000801300185B412018A2F5001747EB030169
:1004300040EAD570B6196D4111E06D084FEA3606F5
:1004400045EAC0754FEA0752001B61EB0201001C30
:1004500041F5801149084FEA3000001951413246F8
:100460002B4603B0BDE8F04F00F097B90098012289
:1004700040000023D0EB020263EBE07300982146BA
:100480004FEAE074B8EB000061EB0401E9E783F0A8
:1004900000435BE781F0004158E72DE9FE4F81EA18
:1004A000030404F0004421F0004100944FF0000BDD
:1004B00023F0004350EA01045ED052EA03045BD00B
:1004C000C3F30A54C1F30A552C44A4F2F334019443
:1004D000A0FB0254C1F3130141F48011C3F31303D1
:1004E00043F4801301FB024400FB034E840A970A85
:1004F00044EA815447EA8357A4FB076802958D0AB2
:1005000005FB07854FEA932C04FB0C542705029D3D
:100510004FEA065847EA1637B5EB08056EEB070CAD
:10052000870E920E47EA811742EA8312A7FB020167
:10053000B6EB0B0164EB00042B0D43EA0C335E18A1
:1005400044EB1C50DA465146E7FB0201C5F31304A5
:100550004FEA0B3343EA14534FEA0432019C43EA57
:100560000603A4F10C040294009CCDE900B400F051
:1005700023F903B0BDE8F08F00200146F9E72DE92B
:10058000F04D81EA030404F0004B21F000451446CD
:100590004FF0000A23F0004150EA050220D054EA4F
:1005A00001021DD0C5F30A570246C5F31303C1F378
:1005B0001300C1F30A5640F4801543F48013A7EBEF
:1005C0000608101BD64608F2FD3873EB050002D36F
:1005D00008F1010801E092185B41B8F1000F03DA5D
:1005E00000200146BDE8F08D00204FF48011064642
:1005F00084460EE0171B73EB050705D3121B63EB54
:10060000050306434CEA010C49084FEA30009218F2
:100610005B4150EA0107EDD152EA030012D082EAB1
:10062000040083EA0501084305D0101BAB4106D244
:100630000122002306E000224FF0004302E06FF0A9
:10064000010253101AEB06004CEB085110EB0A00A4
:1006500041EB0B01BDE8F04D00F09FB82DE9FE4FD6
:10066000C3F30A5701F000450024C1F30A56C3F34F
:100670001303C1F3130143F4801312EB020AA646DD
:1006800041F48011009543EB030CA7F1010B16E038
:10069000B0EB0A0061EB0C01071E71F1000707DAED
:1006A0004FF00008D0EB080085F0004568EB010131
:1006B000171A73EB0107EBD3761E001849415E450C
:1006C000F6DA50EA010209D0CDE900E5002213462E
:1006D000029600F071F803B0BDE8F08F2046009953
:1006E000F9E7C1F30A52C1F3130140F2FF3341F4B9
:1006F00080119A4202DA00200146704740F23343EB
:100700009A42A2F2334202DC524200F024B800F0D6
:1007100013B80000064C074D06E0E06840F0010306
:1007200094E8070098471034AC42F6D3FFF72EFD4B
:100730004C3000086C300008202A04DB203A00FA14
:1007400002F1002070479140C2F1200320FA03F328
:10075000194390407047202A04DB203A21FA02F026
:100760000021704721FA02F3D040C2F120029140EB
:10077000084319467047202A06DBCB17203A41FA76
:1007800002F043EAE07306E041FA02F3D040C2F11E
:100790002002914008431946704710B5141E73F1AA
:1007A000000408DA401C41F1000192185B411A4331
:1007B00001D120F0010010BD2DE9F04D92469B467D
:1007C00011B1B1FA81F202E0B0FA80F22032904623
:1007D000FFF7B2FF04460F4640EA0A0041EA0B0168
:1007E00053465A46084313D0114653EA010019D024
:1007F000C8F140025046FFF7AEFF05460E46504690
:1008000059464246FFF798FF084305D0012004E00F
:1008100020463946BDE8F08D0020054346EAE076E3
:100820002C4337430A986305E40AA0EB0800002232
:10083000FD0A44EA47540A3002D500200146E9E7A0
:10084000010510196941DDE9084500196941BDE854
:10085000F04DA2E770B504460D4600F015F904F01E
:10086000FE0000F0D7F800F05BF9284600F0D2F85F
:1008700000F056F900F008F944F0010000F0CAF861
:1008800000F04EF9002000F08DF8064600F022F945
:10089000304670BD10B52DED068BB0EE408A18EED7
:1008A000100AFFF78DFC41EC1A0B9FED101BB0EE08
:1008B0004A0AF0EE6A0A00F07DFAB0EE409AF0EED5
:1008C000609A51EC190BFFF7A7FC08EE900AF5EEC1
:1008D000C08AF1EE10FA04DBB0EE680ABDEC068BBC
:1008E00010BD9FED040A38EE800AF7E70000000013
:1008F000FA211940D00FC94000BFFEE7704700BF82
:10090000FEE7000000B500200F4908600F480068AE
:1009100020F470400D4908600846006840F44050DB
:10092000086000200A49C1F89C01142001F074FA03
:10093000012005490860142001F06EFA00200449E6
:10094000C1F8980100BD000098812142040C0140CB
:100950000080214200B500200F4908600F48006860
:1009600020F470400D4908600846006840F440508B
:10097000086001200A49C1F89C01142001F04CFADA
:10098000012005490860142001F046FA00200449BE
:10099000C1F8980100BD000098812142040C01407B
:1009A0000080214230B5044600231748006820F437
:1009B0007040154908600846006840F4004008602F
:1009C000002516E0002011490860142001F024FAE7
:1009D00001200F49C1F898015806030E0B487C38D6
:1009E000006808B1581CC3B2142001F015FA681C45
:1009F000C5B2082DE6DB14B9FFF7ACFF01E0FFF745
:100A000081FF184630BD0000040C0140988121424E
:100A10000080214210B503461848006820F4704059
:100A2000164908600846006840F4405008600020FD
:100A30001349086000241EE0D80920B101201049A4
:100A4000091D086003E000200D49091D08605806D3
:100A5000030E142001F0E0F9012009490860142078
:100A600001F0DAF900200749C1F89801142001F0DB
:100A7000D3F9601CC4B2082CDEDB10BD040C0140AD
:100A8000988121420080214200B50F48006820F47F
:100A900070400D4908600846006840F44050086006
:100AA00001200A4908600A49C1F89801142001F0A0
:100AB000B3F9002005490860142001F0ADF90020C9
:100AC0000349C1F8980100BD040C01409C812142FA
:100AD0000080214200B50F48006820F470400D49A5
:100AE00008600846006840F44050086000200A4949
:100AF00008600A49C1F89C01142001F08DF9012019
:100B0000054908600549C1F89C01142001F084F9E9
:100B100000BD0000040C0140988121420080214268
:100B200000B500231548006820F4704013490860A0
:100B30000846006840F40040086001201049086041
:100B4000142001F069F901200E49C1F898011E2016
:100B500001F062F908E0581C83B2B3F5FA7F03DDB7
:100B6000FFF7B8FF012000BD054880380068002865
:100B7000F1D10349091F086000BFF4E7040C0140EC
:100B80009C81214200802142F0EE400A074890ED0E
:100B9000001ADFED071A21EE211ADFED061A01EE29
:100BA000A01AB0EE410A80ED000A704784000020D0
:100BB0006666663FCDCCCC3D00BFFEE77047704710
:100BC000704700001848006840F47000164908603B
:100BD0001648006820F00100401C1449086000BF5E
:100BE00012480068C0F340000028F9D00F48406860
:100BF00020F003000D49486000BF0C484068C0F376
:100C000081000028F9D109480068094908400749CE
:100C100008600020486008634FF41F008860C80324
:100C2000014980390860704788ED00E000100240FB
:100C3000FFFFF2FE10B521480068401C1F49086004
:100C400008460068B0F5FA7F04D100F0ABFE002042
:100C50001A49086000F0B2FD194880ED000A90EDD5
:100C6000000A00F0EBFD174880ED000A90ED000A45
:100C700001F0B8F9144880ED000A90ED000AFFF782
:100C800083FF114880ED000A1048D0ED000A0E489D
:100C900090ED000A01F04CFC0D4880ED000A084878
:100CA00090ED001ADFED0B0A094890ED000A01F003
:100CB0001BFB0121084801F05AFD10BD0400002073
:100CC0000C0000201000002014000020280000204C
:100CD0001800002000000000002C014010B539E091
:100CE000204801F078FE204908702048006840B98B
:100CF00008460078232804D1084600781C4908706B
:100D000028E01C480068401C1A4908601648007812
:100D10001749184A1268885416480068032819D1E0
:100D20000846C078452815D10020124908600F49AF
:100D300008600F490870C87008464078C0F102008A
:100D4000897810FB01F000EE100AB8EEC00A0A48DC
:100D500080ED000A2021034801F0E1FE0028BFD108
:100D600010BD000000380140240000201C000020BD
:100D700000000020200000202800002000BFFEE727
:100D80000FB4054B10B503A9044A029800F092F97C
:100D900010BC5DF814FB0000B11F0008B800002073
:100DA0002DED020B019820F0004001909DED000B0D
:100DB00002B0704710B52DED040B86B09DED060B0B
:100DC00010EE100A10EE901A8DED000B002818BFDF
:100DD0000120084320F00040C0F17F6000F1E040B6
:100DE000C00F21D19DED080B10EE101A10EE900AE5
:100DF0008DED000B002918BF0121084320F00040B1
:100E0000C0F17F6000F1E040C00F0DD12949079883
:100E1000B1EB400F04BF0698002842D0099840006B
:100E200004BF089800283CD09DED080B53EC102B14
:100E30009DED060B51EC100BFFF710FCCDE9020104
:100E40009DED020B40F2FF7110EE900A8DED000B4C
:100E500031EA105021D00798039900F0004001F0CA
:100E60000041884219D09DED080B8DED040B9DEDDE
:100E7000020B8DED000B10EE900A059961F31E0038
:100E800005909DED041B9DED020B51EC110B53ECF5
:100E9000102BFFF7FFFACDE902019DED020B0AB01E
:100EA00010BD012000F028F80AB0BDE8104000F0A5
:100EB00003B800000000E0FF9FED050B10B553ECF8
:100EC000102B51EC100BFFF75AFB41EC100B10BD2F
:100ED000000000000000000002E008C8121F08C166
:100EE000002AFAD170477047002001E001C1121FAB
:100EF000002AFBD1704700000149086070470000DC
:100F0000BC00002010B52DED028BB0EE408A0748E2
:100F1000D0ED000AB2EE061A58EE010AB0EE600AF1
:100F2000FFF7B8FCBDEC028B10BD000038000020BC
:100F30002DE9FF5F82B00021DDE90430020DDDF80C
:100F400040B0034318D044F61050A2F2FF3242439F
:100F50001514119801281FD0A5EB0B00401C5FEA67
:100F6000000A4FF000064E4FDFF83891B046504669
:100F700015D5CAF1000413E0119801244AA30128F1
:100F800001D16FEA0B010298119AC0E90031C0E962
:100F9000024206B0BDE8F09FCBF10000DFE7044657
:100FA0000021404A491842EB0450CDE9001012E0FC
:100FB000E00707D032463B4640464946FFF76DFA08
:100FC0008046894632463B4610461946FFF765FA89
:100FD00006460F466410002CEAD1DDE90401DDE984
:100FE0000023BAF1000F06DAFFF757FA42464B46E4
:100FF000FFF753FA05E0FFF7C2FA42464B46FFF708
:10100000BEFA04460E460022284BFFF7EDF803D83F
:101010004FF0FF30014607E00022254B20463146C5
:10102000FFF794F9FFF75DFB102409E0002C0ADBC1
:101030000A220023FFF722F9039B30321A55641E5F
:1010400050EA0102F2D1641C039AC4F11103144462
:10105000119A012A03D0012208430DD10AE0084366
:1010600004D000204FF0110B119072E7A3EB0B0599
:101070006D1E0DE05B4504DD4FF0000205F101053A
:1010800004E003DA4FF00002A5F10105002AECD0DC
:1010900002981199C0E90231C0E9004579E70000E2
:1010A000000014400000F03F300000000000F0435A
:1010B0000000E03F2DE9FF4F95B09A46884606466E
:1010C0000025EEE1252877D100242746F94A0121A1
:1010D000039400E0044316F8013F203B01FA03F0BB
:1010E0001042F7D130782A2811D06FF02F033078D2
:1010F000A0F13002092A16D8039A44F0020402EB48
:10110000820203EB42021044761C0390EFE758F88A
:10111000042B0392002A03DA504244F40054039053
:1011200044F00204761C30782E2816D116F8010FF0
:1011300044F004042A280DD06FF02F023078A0F17B
:101140003003092B09D807EB870302EB4303C718C9
:10115000761CF3E758F8047B761C30786C280FD0A7
:1011600006DC4C2817D068280DD06A2814D104E07A
:10117000742810D07A280FD10DE044F400140AE04E
:1011800044F4801401E044F440147278824202D1A5
:1011900004F58014761C761C307866280BD013DC9E
:1011A000582877D009DC002875D04528F6D0462885
:1011B000F4D047281AD193E118E0632835D0642889
:1011C00079D0652812D18BE1702873D008DC6728AC
:1011D000F1D069286FD06E280DD06F2806D1ACE011
:1011E00073282CD0752874D0782853D0524617997C
:1011F00090476D1C54E1C4F30250022809D0032823
:101200000DD0D8F8001004280DD00D6008F10408A6
:1012100046E1D8F80010EA17C1E90052F6E7D8F81D
:1012200000100D80F2E70D70F0E718F8041B8DF840
:10123000001000208DF80100EB46012003E058F873
:1012400004BB4FF0FF3061074FF0000102D40DE006
:1012500009F101018946B9420FDA8145F8DB1BF833
:1012600009100029F4D108E009F101018946814201
:10127000FADB1BF809100029F6D103985346A0EBBE
:10128000090721463846179A00F080FA284400EBF7
:10129000090507E044E008E10DE01BF8010B5246A8
:1012A00017999047B9F10109F7D2534621463846BC
:1012B000179AF2E039E00A21C4F302524FF0000B12
:1012C0000091022A06D058F8040BC117032A09D04E
:1012D0000AE023E008F1070020F00702F2E802012B
:1012E000904605E000B2C117042A01D140B2C117EF
:1012F000002906DA0A460021404261EB02012D2254
:1013000002E0220504D52B228DF80420012203E0FF
:10131000E20701D02022F7E7914657E00A2100E0DA
:1013200010214FF0000B00910BE010214FF0000B4B
:1013300044F004040827009103E008204FF0000B5C
:101340000090C4F30252022A05D058F8040B002181
:10135000032A08D008E008F1070020F00702F2E8AD
:101360000201904603E080B2042A00D1C0B24FF0DF
:10137000000922072AD53278702A07D0DDF800C08C
:101380008CF0100C5CEA0B0C05D00EE040228DF8BE
:101390000420012208E050EA010306D030238DF832
:1013A00004308DF8052002229146009B83F008034B
:1013B00053EA0B030AD150EA010201D1620705D5B5
:1013C00030228DF804204FF001097F1E3278582A10
:1013D00004D039A20C920CAA02920BE03BA2F9E7CE
:1013E0005B46009AFEF74AFF0C9B9B5C029A521EDA
:1013F0000292137050EA0102F2D1029804A9081A6D
:1014000000F1200B600702D524F4803400E00127AE
:101410005F4502DDA7EB0B0000E0002000EB0B01B5
:10142000009003984944401A0390E00306D45346C1
:101430002146179A039800F0A9F90544002706E011
:1014400001A85246C05D179990476D1C7F1C4F45FF
:10145000F6DBE0030CD553462146179A039800F0BB
:1014600095F9054404E030205246179990476D1CC9
:101470000099481E00900029F5DC08E002980299C6
:1014800052460078491C0291179990476D1CBBF198
:101490000001ABF1010BF1DC5BE100F065F9054403
:1014A000761C307800287FF40DAE19B02846BDE8D0
:1014B000F08F0000092801003031323334353637DF
:1014C0003839616263646566000000003031323390
:1014D0003435363738394142434445460000000030
:1014E000600700D4062708F1070020F00700F0E8A5
:1014F0000223804603F0004C5FEA0C0001D097A065
:1015000009E0200501D596A005E0E00701D095A0EF
:1015100001E0AFF24C001390307823F000436528CF
:101520000CD006DC452809D046281DD047287FD19D
:101530003BE0662818D067287AD136E00021112FC9
:1015400001DB112000E0781CCDE9000104A90CA802
:10155000FFF7EEFCDDE90D010C9A4FF0000B07F1EF
:101560000109109200914EE04FF000400097CDE944
:10157000011004A90CA8FFF7DBFCDDE90D020C9BB0
:101580000F994FF0000B91461093009211B9791CFE
:1015900000EB0109B7EB090003D4C0F1FF3B07F1F1
:1015A0000109A9EB0700019042E0012F00DA0127B1
:1015B0000021112F01DD112000E03846CDE90001A6
:1015C00004A90CA8FFF7B4FCDDE90D010C9A009109
:1015D0004FF0000BB946109221070FD4009A4A45EC
:1015E00003DA914601E0A9F10109B9F1010F05DD26
:1015F000109AA9F10101515C3029F4D0B84202DA05
:1016000010F1040F03DA0121CDE9011010E00028E8
:1016100003DC8344A9EB000102E0411C494500DDE5
:101620008946A0EB0B00401C01904FF00040029057
:10163000200705D40198484502DB4FF0FF300190A8
:1016400000208DF84B0002980DF14B07B0F1004FD0
:1016500025D002200C902B200D90029800280CDA47
:10166000404202902D200D9007E00A210298FEF7DB
:10167000EFFD3031029007F8011D0C99481E0C90C7
:101680000029F2DC02980028EFD1791E0D9808702D
:10169000307800F0200040F0450007F8020D11A856
:1016A000C01BC01D02901398007800B1012000EB10
:1016B0000901019801EBE071029801440398401A76
:1016C000401E0390E00306D453462146179A039820
:1016D00000F05CF805441398007818B15246179949
:1016E00090476D1CE00323D553462146179A039873
:1016F00000F04CF805441BE0BBF1000F07DB00983D
:10170000584504DD1098179910F80B0001E017995F
:1017100030205246904701980BF1010B401E05F115
:101720000105019004D12E205246179990476D1C57
:10173000B9F10001A9F10109DEDC05E017F8010BA0
:101740005246179990476D1C0299481E0290002935
:10175000F4DC53462146179A03989EE62D000000BC
:101760002B000000200000002DE9F0410446002578
:101770001E461746880404D405E039462020B047A9
:101780006D1C641EF9D52846BDE8F0812DE9F041B5
:10179000044600251E469046C80301D5302700E0C8
:1017A0002027880404D505E041463846B0476D1C23
:1017B000641EF9D52846BDE8F081000010B50E2161
:1017C0006C20FFF747F819490860084600680002D6
:1017D00008600F216C20FFF73DF8144909680843A1
:1017E00012490860084690ED000AB8EEC00A9FED65
:1017F000101AC0EE010A0F4890ED000A20EE800A90
:101800000D4880ED000A90ED000A0A48D0ED000A6C
:10181000B4EEE00AF1EE10FA04DB90ED000A06489F
:1018200080ED000A044890ED000A10BD5C00002025
:1018300000008045640000206000002010B52DED00
:10184000068BB0EE408A274880ED008A90ED000AB2
:101850002548D0ED000A30EE600A244880ED000AE9
:101860000068FEF7ADFC41EC1A0BB0EE4A0AF0EE50
:101870006A0AFFF795FAB0EE409AF0EE609A9FED93
:101880001C0B53EC102B51EC190BFEF7ADFC16D2D0
:10189000164890ED000AB5EEC00AF1EE10FA02DD2E
:1018A0004FF0FF3000E0012000EE100AB8EEC00A51
:1018B0001148D0ED000A30EE200A80ED000A0948F8
:1018C00090ED000A084880ED000A90ED000A0A48F1
:1018D000D0ED000A9FED091A00EE810ABDEC068BDF
:1018E00010BD0000680000206C0000207000002087
:1018F000000000802F1B144074000020DB0FC94043
:1019000010B52DED048B82B09FED1A1AF7EE000A88
:101910009FED180A00F0E8FC642000F043FAFFF79E
:101920004DFFB0EE408AFFF7EDFA134880ED000A54
:10193000FFF744FFB0EE408AFFF7E4FA10EE104ADA
:101940000EA0FFF71DFA2046FEF73AFC41EC180BFB
:1019500009480068FEF734FC41EC190B8DED008B53
:1019600053EC192B09A0FFF70BFA02B0BDEC048B66
:1019700010BD00000000000038000020B3F5CABC14
:10198000BBAFCDEAB3C90D0A00000000C1E3B5E763
:10199000CEBBBDC7B6C83A09256C660909256C6679
:1019A0000D0A00000348006880F00100014908604A
:1019B000704700000C0C01400349496860F30711AF
:1019C000014A516070470000001002400349496815
:1019D00060F30A21014A5160704700000010024084
:1019E0000349496860F3CD21014A51607047000006
:1019F00000100240012807D10749496D21F030014C
:101A00003031054A516505E00349496D21F0300147
:101A1000014A51657047000000100240052827D296
:101A2000DFE800F0030A11181F00134A126861F37F
:101A30000002114B1A601CE00F4A126861F3104259
:101A40000D4B1A6015E00C4A126861F318620A4BDC
:101A50001A600EE0084A126A61F30002064B1A622D
:101A600007E0054A526A61F30002034B5A6200E044
:101A700000BF00BF70470000001002402DE9F04198
:101A8000014600270022002590460023002400F094
:101A900065F9064626B1012E12D0022E43D112E07E
:101AA0003948406DC0F3402038B13748006BC0F36F
:101AB000406010B13548086001E03548086035E005
:101AC0003348086032E030484068C0F300482E4890
:101AD0004068C0F383422C484068C0F341750DB99B
:101AE0000F2A03D12801401C024400E0921CB8F1E7
:101AF000000F03D127485043086013E02248406894
:101B0000C0F3404058B12048406DC0F30137B81CC5
:101B1000DFF87CC0BCFBF0F05043086002E01C48DA
:101B20005043086002E01A48086000BF00BF164832
:101B30004068C0F303131848C45C0868E04048607C
:101B400011484068C0F302231448C45C4868E04070
:101B5000C8600D484068C0F3C2231148C45C48689F
:101B6000E040886008484068C0F300730648406859
:101B7000C0F3813040EA83030A48C45C8868B0FB44
:101B8000F4F00861BDE8F08100100240006CDC0256
:101B900000127A0000093D001430000824300008CB
:101BA0002C3000083430000810B501460020094BE5
:101BB00003EB1142126801F01F040123A3401A40F5
:101BC00001F01F040123A3409A4200D000E001204D
:101BD00010BD00000010024030B50024002500E0D8
:101BE000641C1120FFF7E0FF012802D0B4F5405F2C
:101BF000F6D31120FFF7D8FF012801D0002500E01F
:101C00000125284630BD000010B501290DD10E4B2D
:101C100003EB1042126800F01F040123A3401A4393
:101C2000094C04EB10431A600CE0074B03EB104225
:101C3000126800F01F040123A3409A43024C04EBF6
:101C400010431A6010BD00000010024010B568B9C2
:101C50001C4B5B6823F480331A4C636023461B6B78
:101C600023F0007303F10073236317E0154B5B68E7
:101C700023F4803303F58033124C6360012805D1CF
:101C800023465B6823F40033636007E00D4B5B6819
:101C900023F4003303F500330A4C6360094B5B689F
:101CA00061F39543074C63600C09064B5B6864F372
:101CB0005E73044C636023465B6862F3DF736360AA
:101CC00010BD0000001002401348006820F0010021
:101CD000401C1149086000BF0F480068C0F3400075
:101CE0000028F9D00C48406820F003000A494860F9
:101CF00000BF09484068C0F381000028F9D10648B8
:101D000000680649084004490860002048600863EC
:101D10004FF41F008860704700100240FFFFF2FE82
:101D20000D49496860F301010B4A516000BF00BFD3
:101D300000BF00BF00BF00BF00BF00BF00BF00BFAB
:101D400000BF00BF00BF00BF00BF00BF00BF00BF9B
:101D500000BF00BF7047000000100240024840680A
:101D6000C0F38100704700000010024010B504204D
:101D700000F0BEFC074800680749B0FBF1F00749D6
:101D80000860084600684FF47A71484304490860C7
:101D900010BD00002C00002040420F003000002049
:101DA00034000020002131E032280ADD194A12688F
:101DB00032235A434FF0E0235A61A0F1320290B22D
:101DC00006E0144A126842434FF0E0235A610020B3
:101DD00000224FF0E0239A611A46126942F0010294
:101DE0001A6100BF4FF0E022116901F001021AB13F
:101DF00001F48032002AF5D04FF0E022126922F07F
:101E000001024FF0E0231A6100229A610028CBD131
:101E1000704700003400002000BF011EA0F1010047
:101E2000FBD17047F0EE400A9FED270A20EE800AB2
:101E3000BDEEC00A10EE100A00EE100AB8EEC01A8D
:101E4000DFED221AB0EE600A01EE610AF0EE400A00
:101E500000F0010179B1F5EEC00AF1EE10FA04DDEF
:101E60009FED1A0A30EEC00A03E09FED180A30EE2B
:101E7000800AF0EE400A20EEA00ADFED151AB0EE5F
:101E8000611ADFED141A41EE001AB0EE611ADFEDAF
:101E9000121A41EE001AB0EE611ADFED101A41EE8F
:101EA000001AB0EE611ADFED0E1A41EE001AB0EE24
:101EB000611ADFED0C1A41EE001A20EEA01AB7EEFF
:101EC000000A01EE210A704783F9A23EDA0F494069
:101ED000F2A3ED30017591B4B3CCCF371408B6BA84
:101EE00083AA2A3DFDFFFFBEF0EE400A9FED280ABF
:101EF00020EE800ABDEEC00A10EE100A00EE100AB5
:101F0000B8EEC01ADFED231AB0EE600A01EE610AE6
:101F1000F0EE400A00F0010179B1F5EEC00AF1EEF1
:101F200010FA04DD9FED1B0A30EEC00A03E09FEDBE
:101F3000190A30EE800AF0EE400A20EEA00ADFED2A
:101F4000161AB0EE611ADFED151A41EE001AB0EE66
:101F5000611ADFED131A41EE001AB0EE611ADFEDDF
:101F6000111A41EE001AB0EE611ADFED0F1A41EEC0
:101F7000001AB0EE611ADFED0D1A41EE001A20EEE4
:101F8000A00A20EE201AB0EE600A01EE210A704786
:101F900083F9A23EDA0F49407ABF142FCA32D4B275
:101FA00035C538369E0A50B97888083CAAAA2ABE98
:101FB00070B504460D4600BF8021094800F018FDA9
:101FC0000028F9D0A1B2064800F009FD00BF402169
:101FD000034800F00DFD0028F9D0204670BD000038
:101FE00000380140F0EE400A0F48C0ED000A90EDC5
:101FF000000A0E4890ED001A30EE410AB7EE001AC2
:10200000C0EE011A0A48C0ED001A074890ED000A18
:10201000064880ED000A064890ED000A9FED051A7B
:1020200020EE010A704700007C00002080000020A4
:10203000780000200000C84241617047016170478C
:102040004FF6FF710160002181710171042141711E
:102050000121C1717047F0B50A461588ABB2957978
:10206000032D01D100241AE0957965B9557905F061
:102070000F045579182D01D1036110E05579282DF1
:102080000DD143610BE0957905F00805167906F04E
:1020900004063543D67906F0030645EA0604DDB2A8
:1020A000A5B1002110E001258D401D405DB10568FE
:1020B0008F000F26BE40B543056005688E0004FA08
:1020C00006F635430560491C0829ECD3FF2B15DDC6
:1020D0001B12002110E001258D401D405DB14568B7
:1020E0008F000F26BE40B543456045688E0004FA58
:1020F00006F635434560491C0829ECD3F0BD0000C5
:10210000F0B50C46104F07EB1062C0F30741C0F367
:102110000725C6B2C5F12007A7EB010C4FF0FF372A
:1021200007FA0CF3C5F120077F1AFB40CB408B4028
:1021300017689F4317602CB106FA01FC176847EA3D
:102140000C071760F0BD000000000140B4EEC10AAA
:10215000F1EE10FA02DBB0EE410A06E0B4EEE00A5E
:10216000F1EE10FA00D800E000BF70472DED048BAF
:1021700082B000F0BDFD00F095FD00F059FD00F0CB
:1021800081FD00F0FDFE00F0FFFD00F023FE00F0F9
:1021900057FDFFF7EBFDFFF7B3FB012211460E4899
:1021A00000F0E8FA01220D490D4800F09DFC12E014
:1021B0000C480068FEF704F841EC190B0A48006867
:1021C000FDF7FEFF41EC180B8DED009B53EC182B37
:1021D00006A0FEF7D5FDEBE7002C014005000C0042
:1021E000003801401400002028000020256C662CD7
:1021F000256C660D0A0000002DE9F0470B461446D9
:102200004FF0000C00BF2C4A1268C2F302211D4699
:1022100026460A46C2F10709B9F1040F02D94FF068
:10222000040901E0C2F10709C84602F10409B9F145
:10223000070F02D24FF0000901E0A2F103094F4657
:102240004FF0010909FA08F9A9F1010909EA05099C
:1022500009FA07F94FF0010A0AFA07FAAAF1010A86
:102260000AEA060A49EA0A09CC46014662460029FA
:1022700004DB15072E0E114D6E5407E015072F0EC7
:102280000D4D0C3501F00F06361FAF5500BF01464E
:1022900000290DDB00BF00BF01F01F050122AA408D
:1022A0004D09AD0005F1E025C5F8002100BF00BFD4
:1022B00000BFBDE8F08700000CED00E000E400E0A6
:1022C00000BF00F00702064B19684FF6FF031940E4
:1022D000044B0B4343EA0221014B196000BF7047D6
:1022E0000CED00E00000FA0510B52DED048BB0EE0A
:1022F000408AF0EE608AB0EE419AB1EE081AF9EE2B
:10230000080AB0EE480AFFF721FFB0EE408AB0EEAF
:10231000490AFEF7BFFAB0EE409AB0EE490AFEF75E
:10232000F1FDB0EE409AB0EE490AFFF7DDFDF1EEA7
:10233000480A60EE209AB0EE490AFFF773FD48EEB6
:10234000809A2948C0ED009AB0EE490AFFF76AFD6D
:1023500060EE089AB0EE490AFFF7C6FD48EE809A93
:102360002248C0ED009A204890ED000AF1EE080ADC
:1023700030EE200A1E4880ED000A1B4890ED000A4E
:102380001A48D0ED000A9FED1B1A11EE200AB0EE9C
:10239000001AC0EE010AB1EE080A30EE800A1648B3
:1023A00080ED000A104890ED000A1048D0ED000AB8
:1023B0009FED121A11EE200AF0EE000A80EE201AAC
:1023C000B1EE080A31EE000A0D4880ED000A90EDEA
:1023D000001A0948D0ED000A054890ED000A00F007
:1023E00011F8BDEC048B10BD480000204C0000200B
:1023F000500000202DB2DD3F540000202DB2DDBF83
:102400005800002010B52DED048BB0EE409AB0EED0
:10241000608AF0EE418AB2EE081ADFED400AB0EEB3
:10242000490AFFF793FEB0EE409AB2EE081ADFEDCC
:102430003B0AB0EE480AFFF789FEB0EE408AB2EEE2
:10244000081ADFED360AB0EE680AFFF77FFEF0EEFD
:10245000408AB2EE080AC9EE000AF0EE601AB7EE42
:10246000001ADFED2E0AB0EE610AFFF76FFE2C486E
:1024700080ED000AB2EE080AC8EE000AF0EE601A1B
:10248000B7EE001ADFED250AB0EE610AFFF75EFE37
:10249000244880ED000AB2EE080AC8EE800AF0EE89
:1024A000601AB7EE001ADFED1D0AB0EE610AFFF701
:1024B0004DFE1D4880ED000A194890ED000ADFED41
:1024C0001B0A20EE200ABCEEC00A10EE102A0021E2
:1024D0004FF0804000F028F9124890ED000ADFED3F
:1024E000130A20EE200ABCEEC00A10EE102A0421C6
:1024F000080700F019F90C4890ED000ADFED0B0A0F
:1025000020EE200ABCEEC00A10EE102A06214FF081
:10251000804000F009F9BDEC048B10BD0000000004
:102520003C00002040000020440000200080BB450B
:1025300010B52DED028BB0EE408AF0EE608A38EED9
:10254000C80A264880ED000A90ED000A2448D0ED24
:10255000000A30EE600A2348D0ED000A20EE200A7F
:102560002148D0ED000A1D4890ED001A00EE810AC6
:102570001E4880ED000AB0EE081AF8EE080A90ED49
:10258000000AFFF7E3FD194880ED000A184890EDB6
:10259000000A1648D0ED000A30EE200A144880EDFB
:1025A000000AB1EE081AF9EE080A90ED000AFFF7EA
:1025B000CDFD0F4880ED000A094890ED000A0D4856
:1025C00080ED000A054890ED000A054880ED000AFC
:1025D000074890ED000ABDEC028B10BD9C00002066
:1025E000A0000020B0000020B4000020AC000020BB
:1025F000A8000020A40000202DE9F04700260024B8
:1026000000250027A046A146FFF7A8FB8246BAF1A5
:10261000000F06D0BAF1010F15D0BAF1020F46D162
:1026200015E02D48406DC0F3402040B12A48006BB2
:10263000C0F3406018B129482949086002E02948E0
:102640002749086037E027482549086033E02248D9
:102650004068C0F3004720484068C0F383441E48E8
:102660004068C0F341750DB90F2C03D12801401CFF
:10267000044400E0A41C27B91B48604318490860C3
:1026800014E015484068C0F3404058B11248406D0E
:10269000C0F30136B01C1349B1FBF0F060431049A0
:1026A000086003E00F4860430D49086003E00D48EF
:1026B0000B49086000BF00BF07484068C0F303181B
:1026C0000A4810F808900648006820FA09F0044902
:1026D0000860BDE8F087000000100240006CDC02DA
:1026E0002C00002000127A0000093D003C30000858
:1026F000042808D14FF0E021096941F004014FF0AE
:10270000E022116107E04FF0E021096921F00401A6
:102710004FF0E02211617047C1628262436923F089
:1027200001035B1C436170470B4633B1022B06D09B
:10273000042B06D0062B08D105E0426306E0826335
:1027400004E0C26302E0026400E000BF00BF704723
:10275000026861F3092202607047026861F30612A1
:1027600002607047026861F3000202607047CA436A
:1027700002617047012A03D1C3680B43C36003E0C1
:1027800012B9C3688B43C360704710B50B4633B1B1
:10279000022B09D0042B0CD0062B14D10EE0846937
:1027A00062F3C30484610FE0846962F3CB24846123
:1027B0000AE0C46962F3C304C46105E0C46962F35A
:1027C000CB24C46100E000BF00BF10BD2DE9F04183
:1027D00000250026002701F108035C1C92F801C0C7
:1027E0000CFA03FC1FFA8CF592F802C00CFA04FCF8
:1027F0001FFA8CF6D0F804C04FF0010808FA04F86C
:102800002CEA080CC0F804C0D0F804C04CEA060C4E
:10281000C0F804C0D0F804C04FF0010808FA03F86B
:102820002CEA080CC0F804C0D0F804C04CEA050C2F
:10283000C0F804C00F4637B1022F0DD0042F14D0BA
:10284000062F24D11AE092F80080D0F818C068F35F
:10285000061CC0F818C01BE092F80080D0F818C021
:1028600068F30E3CC0F818C012E092F80080D0F86F
:102870001CC068F3061CC0F81CC009E092F8008078
:10288000D0F81CC068F30E3CC0F81CC000E000BFCC
:1028900000BF4FF0010C0CEB41034FF0030C0CEBAD
:1028A000410492F803C00CFA03FC1FFA8CF592F86D
:1028B00004C00CFA04FC1FFA8CF64FF0010808FA69
:1028C00004F8D0F820C02CEA080CC0F820C0D0F8DA
:1028D00020C04CEA060CC0F820C04FF0010C0CFAE6
:1028E00003FCD0F8208028EA0C08C0F82080D0F83B
:1028F00020C04CEA050CC0F820C04B004FF0020C81
:102900000CEB410492F805C04FEA41080CFA08FCB0
:102910001FFA8CF592F806C04FF0020808EB410848
:102920000CFA08FC1FFA8CF64FF0010808FA04F8BC
:10293000D0F820C02CEA080CC0F820C0D0F820C085
:102940004CEA060CC0F820C04FF0010808FA03F862
:10295000D0F820C02CEA080CC0F820C0D0F820C065
:102960004CEA050CC0F820C0BDE8F08110B50B465C
:1029700033B1022B09D0042B0CD0062B14D10EE05E
:10298000846962F3820484610FE0846962F38A24BB
:1029900084610AE0C46962F38204C46105E0C46929
:1029A00062F38A24C46100E000BF00BF10BD02686A
:1029B00061F3C71202607047426861F30612426019
:1029C0007047026B61F3070202637047826861F32C
:1029D000C712826070470146486880B27047C1F3F1
:1029E000080242607047C26861F34D32C2607047AE
:1029F00002461068084008B1012070470020FCE73B
:102A000041B9426922F480724261426922F4007243
:102A1000426127E001290AD1426922F4807202F55D
:102A200080724261426922F4007242611AE0022916
:102A30000AD1426922F480724261426922F4007232
:102A400002F5007242610DE003290BD1426922F4C4
:102A5000807202F580724261426922F4007202F5CE
:102A600000724261704700002DE9F04385B00446D2
:102A70000F46904699466846FFF700F8174884428B
:102A800005D01748844202D01648844201D1029EE4
:102A900000E0039E06EB86004000B0FBF7F50A203D
:102AA000B5FBF0F100FB1150052803D20A20B5FB5D
:102AB000F0F503E00A20B5FBF0F0451CA06865F3D3
:102AC0000F00A060E06868F30C30E060206969F3F3
:102AD0000D30206105B0BDE8F083000000380140F2
:102AE000006001400064014030B5012A0BD100EBC9
:102AF00011431B6801F01F050124AC40234300EB88
:102B0000114423600AE000EB11431B6801F01F052C
:102B10000124AC40A34300EB1144236030BD0246C6
:102B20000023202927D00CDC042939D004DC01291A
:102B30003BD002293DD134E0082920D0102938D1DA
:102B40002AE0402913D080290DD0B1F5807F06D02E
:102B5000B1F5007F2DD15069C0F380232BE01069BF
:102B6000C0F3801327E0D068C0F3C01323E0D0681F
:102B7000C0F380131FE0D068C0F340131BE0D0689F
:102B8000C0F3401018B9506900F0010008B10120ED
:102B900000E0002003460EE0D068C0F300130AE016
:102BA00000BF506900F0010305E0D068C0F30023C6
:102BB00001E0002300BF00BF012B01D000207047BF
:102BC0001068084008B10120F9E70020F7E741B993
:102BD000C26822F40072C260C26822F48062C260DD
:102BE0001AE001290AD1C26822F40072C260C268E8
:102BF00022F4806202F58062C2600DE002290BD1EE
:102C0000C26822F4007202F50072C260C26822F447
:102C1000806202F58062C2607047C26861F382021E
:102C2000C2607047C26861F3C302C26070470000AF
:102C300010B501210148FFF763FA10BD02031030FF
:102C40001CB56846FFF7FCF901210D48FFF7F4F9C0
:102C5000C0210B48FFF7F2F902208DF80700002091
:102C60008DF8040010208DF80600C120009004208B
:102C70008DF8050069460248FFF7EDF91CBD00001C
:102C8000000C014010B50320FFF71AFB002211468B
:102C90001920FFF7B1FA002211462520FFF7ACFA00
:102CA00010BD000010B501214FF4C010FEF7ACFFBD
:102CB00001210E48FEF7A8FF01210C48401CFEF739
:102CC000A3FF01210948C01CFEF79EFF0121074810
:102CD0000930FEF799FF012104480C30FEF794FFFC
:102CE00001214FF4E010FEF78FFF10BD0200180025
:102CF00010B5FEF7E9FF01210420FEF78FFE00BFAB
:102D00002048FEF751FF0128FAD101210846FEF7BD
:102D100085FE00BFFEF760FF0028FBD001210020E8
:102D2000FEF77CFE00BF0120FEF73EFF0128FAD12E
:102D300001221D211046FEF789FF01210220FEF726
:102D40006DFE00BF1920FEF72FFF0128FAD10020E9
:102D5000FEF732FE0420FEF743FE0420FEF736FEA7
:102D60000120FEF747FE0220FEF7DAFF00BFFEF764
:102D7000F5FF0228FBD10020FEF73CFEFFF73CFCEC
:102D800010BD00000100240010B5092245F6BF5116
:102D90000F48FFF7C1FC00210D48FFF7DEFC0021C2
:102DA0000B48FFF7D5FC00210948FFF70AFE002178
:102DB0000748FFF7FCFD00210548FFF707FE00214B
:102DC0000348FFF7F9FD01210148FFF7CBFC10BDD7
:102DD000002C01401FB502A8FFF732F90120029034
:102DE00008208DF80E0000208DF80C0004208DF8CE
:102DF0000D0002208DF80F0002A96048FFF72BF9A3
:102E00000420029008208DF80E0000208DF80C00A0
:102E100004208DF80D0002208DF80F0002A95748FC
:102E2000FFF719F9082002908DF80E0000208DF8A8
:102E30000C0004208DF80D0002208DF80F0002A96F
:102E40004E48FFF708F9002241F270714FF08040C0
:102E5000FFF762FC02214807FFF77FFC00214FF0DB
:102E60008040FFF775FC00214FF08040FFF79FFD89
:102E700000214FF08040FFF7A9FD00214FF0804076
:102E8000FFF79AFD06208DF8000001208DF805005F
:102E900000208DF806008DF803008DF804008DF8F1
:102EA00001008DF802006A4600214FF08040FFF7D4
:102EB0008DFC002211464FF08040FFF735FC0022C8
:102EC00011464FF08040FFF760FC002211464FF0A2
:102ED0008040FFF74BFD06208DF8000001208DF8A3
:102EE000050000208DF806008DF803008DF8040021
:102EF0008DF801008DF802006A4604210807FFF7EB
:102F000065FC002204210807FFF70EFC00220421C3
:102F10000807FFF73AFC002204210807FFF726FD07
:102F200006208DF8000001208DF8050000208DF8A6
:102F300006008DF803008DF804008DF801008DF86F
:102F400002006A4606214FF08040FFF73FFC002256
:102F500006214FF08040FFF7E7FB002206214FF0EB
:102F60008040FFF712FC002206214FF08040FFF75F
:102F7000FDFC01218807FFF7F5FB1FBD000801409C
:102F80001CB56846FFF75CF802208DF807000020AA
:102F90008DF8040008208DF80600800100900420C0
:102FA0008DF8050069461848FFF755F802208DF89E
:102FB000070000208DF804008DF806004FF48060B3
:102FC000009004208DF8050069460F48FFF743F88C
:102FD00000231A460D490E48FFF746FD01210C4813
:102FE000FFF720FE01210A48FFF717FE00210848DD
:102FF000FFF7EDFD00210648FFF702FD012104481F
:10300000FFF7F1FC1CBD000000080140E093040044
:10301000003801400000000000000000010203042D
:103020000607080900000000010203040000000078
:103030000102030402040608020C0810000000004C
:103040000000000001020304060708096C300008B4
:1030500000000020C0000000D80E00082C3100083D
:10306000C000002000040000E80E0008000000007E
:1030700000000000000040400000000000000000D0
:103080000000000000000000000000000000000040
:10309000000000000000000000127A0000000000A4
:1030A0000000000000000000000000000000000020
:1030B0000000000000000000000000000000000010
:1030C0000000000000000000000000000000000000
:1030D000DA0FC940000000000000000000000000FE
:1030E00000000000000000000000000000000000E0
:1030F00000000000000000000000000000000000D0
:10310000000020410000803F00000000000000009F
:10311000000000000000000000000000CDCCCC3D0D
:0C3120000AD7233C000000000000000063
:040000050800018569
:00000001FF
